:020000040800F2
:1000000068050020A9010008FB1400084912000837
:10001000F9140008C7020008951900080000000044
:10002000000000000000000000000000FF140008B5
:10003000C902000800000000FD14000801150008B6
:10004000C3010008C3010008C3010008C301000880
:10005000C3010008C3010008C3010008C301000870
:10006000C3010008C3010008C3010008C301000860
:10007000C3010008C3010008C3010008C301000850
:10008000C3010008C3010008C3010008000000000C
:10009000000000000000000000000000C301000894
:1000A000C3010008A9150008C3010008C301000826
:1000B000C3010008C3010008C3010008C301000810
:1000C000C3010008C3010008C3010008C301000800
:1000D000C3010008C3010008C301000800000000BC
:1000E000C3010008C3010008C301000800000000AC
:1000F000000000000000000000000000C301000834
:1001000000000000C3010008C3010008C30100088B
:1001100000000000000000000000000000000000DF
:10012000C3010008C3010008C3010008C30100089F
:10013000C3010008000000000000000000000000F3
:10014000000000000000000000000000C3010008E3
:10015000C3010008C3010008C3010008C30100086F
:10016000C3010008C30100080000000000000000F7
:10017000000000000000000000000000000000007F
:1001800000000000C30100080000000000000000A3
:10019000C3010008DFF80CD000F07AF800480047EF
:1001A000D519000868050020064880470648004722
:1001B000FEE7FEE7FEE7FEE7FEE7FEE7FEE7FEE717
:1001C000FEE7FEE78D150008950100082DE9F05FB8
:1001D0000546002092469B468846064681464024B6
:1001E0001BE0284641464746224600F041F8534668
:1001F0005A46C01A914110D311461846224600F0C3
:1002000028F82D1A67EB01084F46224601200021ED
:1002100000F01FF817EB00094E41201EA4F1010465
:10022000DFDC484631462A464346BDE8F09FD2B25D
:1002300001E000F8012B491EFBD270470022F6E7CF
:1002400010B513460A4604461946FFF7F0FF20464C
:1002500010BD202A04DB203A00FA02F1002070478A
:100260009140C2F1200320FA03F3194390407047F4
:10027000202A04DB203A21FA02F00021704721FAFB
:1002800002F3D040C2F12002914008431946704762
:10029000064C074D06E0E06840F0010394E80700D3
:1002A00098471034AC42F6D3FFF778FF101E0008D1
:1002B000301E000810B50C4601F010FC2046BDE8C9
:1002C000104001F0ABBBFEE7704710B50C4601F0E3
:1002D00025FC2046BDE8104001F0C0BB70B50446C7
:1002E00000F0E2F80546601C02D00448007804449F
:1002F00000F0DAF8401BA042FAD370BD14000020D1
:100300002DE9F84F00224FF0010803254FF00F0EA2
:100310000B6808FA02F42340A34271D14E68012E03
:1003200005D0022E03D0112E01D0122E15D18668D1
:10033000570005FA07FC26EA0C06D1F80CC00CFAA7
:1003400007FC4CEA060CC0F808C04668A6430C79C6
:10035000C4F30014944034434460C668570005FA5F
:1003600007FC8C6826EA0C06BC403443C4604C6829
:10037000022C01D0122C13D1D40800EB8404A34624
:10038000D4F8209054074FEAD46A0EFA0AF629EA04
:1003900006090E6906FA0AF646EA0906CBF8206055
:1003A00004680E7924EA0C0406F00306BE402643D6
:1003B00006604C68E40056D52E4C266846F480460C
:1003C0002660246822F0030604F4804400942A4C3A
:1003D0003444A446D4F808489607370F0EFA07F6B7
:1003E000B443264EB04201D1002615E0244EB0425F
:1003F00001D1012610E0234EB04202D102260BE0CB
:1004000031E0214EB04201D1032605E01F4EB0423B
:1004100001D1042600E00726BE402643CCF8086838
:100420001B4E34684F689C43FF0300D51C43346067
:10043000174E361D34684F689C43BF0300D51C43DC
:100440003460134E083634684F689C43FF0200D571
:100450001C4334600E4E0C3634684F689C43BF0218
:1004600000D51C433460521C102AFFF451AFBDE884
:10047000F88F000044380240003001400000024084
:100480000004024000080240000C0240001002403C
:10049000003C01400069084000D0012070470AB1CB
:1004A000816170470904FBE70148806870470000DC
:1004B000140000200248816802781144816070476E
:1004C000140000200B4810B5016841F40071016070
:1004D000016841F480610160016841F4807101604C
:1004E000032000F071F8002000F006F800F024F876
:1004F000002010BD003C024070B50D4D04464FF485
:100500007A712878B1FBF0F00A490968B1FBF0F084
:1005100000F0E4FA48B9102C07D200222146501E00
:1005200000F032F800206C6070BD012070BD00004A
:1005300014000020200000200B4882B0016841F424
:1005400080410160006800F4804000900648001F70
:10055000016841F080510160006800F08050009017
:10056000072002B000F030B844380240002809DB10
:1005700000F01F02012191404009800000F1E020BD
:10058000C0F8001170470000F0B40E4B1B680C4619
:10059000C3F30223C3F10705042D00D90425191D57
:1005A000072901D2002300E0DB1E012606FA05F12F
:1005B000491E214099409E40761E16403143F0BCB2
:1005C00001F0E9B90CED00E0064900F00702086807
:1005D0004FF6FF03184040EA0220034A1043086028
:1005E000704700000CED00E00000FA052DE9F0472F
:1005F0000E46050065D0DFF81481D8F80000F7B288
:1006000000F00F00B04207D288F80070D8F8000060
:1006100000F00F00B04254D128683D4C810712D53C
:10062000400703D5206840F4E05020602878000798
:1006300003D5206840F4604020602068A96820F05D
:10064000F000084320602878C0072DD03049686842
:100650000839012812D0022813D0032811D00968C4
:10066000890700292DDA216821F003010143216067
:10067000FFF71AFF814641F2883A0EE009688903C4
:10068000EFE709688901ECE7FFF70EFFA0EB09012E
:10069000514502D90320BDE8F0872068696800F061
:1006A0000C00B0EB810FEFD1D8F80010404601F0FC
:1006B0000F01B14207D90770006800F00F00B04287
:1006C00001D00120E7E72878400705D52068E968D0
:1006D00020F4E050084320602878000706D5206801
:1006E000296920F4604040EAC100206000F018F859
:1006F0002168084AC1F30311515CC84006490860EB
:1007000006480068FFF7F8FE0020C4E7003C0240FE
:1007100008380240001E00082000002018000020B9
:10072000154810B5006810F00C02144813D04110A1
:10073000042A0FD0082A0ED10F4C241F22682368E8
:1007400002F03F025B0207D52068C0F38810A0FBCF
:10075000010106E0084610BD2168C1F38811A1FB24
:1007600000010023FFF732FD2168C1F30141491C5C
:100770004900B0FBF1F010BD083802400024F4003D
:100780002DE9F84F040076D02078DFF838A3CE4D5D
:10079000C00749D0DAF800105046C1F381010129A1
:1007A00008D00068C0F3810002280AD1281D006823
:1007B000400206D52868800336D560680028E2D05C
:1007C00032E06068B0F5803F10D0B0F5A02F286807
:1007D00010D020F480302860286820F48020286021
:1007E0006068A0B1FFF760FE06460CE0286840F4A0
:1007F0008030F4E740F480202860F7E7FFF754FEEC
:10080000801B642873D828688003F7D50CE0FFF7B5
:100810004BFE064605E000BFFFF746FE801B64283E
:10082000F0D828688003F7D42078DFF8A08280070A
:100830004FF000093ED5DAF80010504611F00C0FC9
:1008400009D00068C0F3810002280BD19D48001F29
:100850000068400206D42868800715D5E0680128A2
:1008600009D111E0E068B8B10120C8F80000FFF735
:100870001BFE064605E020E1FFF716FE801B02285E
:10088000C0D828688007F7D52868216920F0F800CB
:1008900040EAC10028600DE0C8F80090FFF704FEB0
:1008A000064604E0FFF700FE801B02281FD82868D8
:1008B0008007F7D42078000722D5824E84486169EA
:1008C0006C3671B101210160FFF7EEFD074604E0CF
:1008D000FFF7EAFDC01B022809D830688007F7D56A
:1008E0000EE0C0F80090FFF7DFFD074605E082E06C
:1008F000FFF7DAFDC01B02287DD830688007F7D4E7
:100900002078400768D5DFF8BCB100270BF1380B21
:10091000DBF80000C0000BD4DBF8001041F0805180
:10092000CBF80010DBF80000012700F080500090A9
:10093000684E3068C00510D4306840F48070306074
:10094000FFF7B2FD009005E0FFF7AEFD0099401AF9
:10095000022850D83068C005F6D55A4EA0686836CF
:1009600001280FD00528306810D020F00100306039
:10097000306820F004003060A068B8B1FFF794FD43
:1009800000900FE0306840F00100F4E740F0040010
:100990003060F7E7FFF788FD0099411A41F288308F
:1009A000814266D830688007F4D50EE0FFF77CFD01
:1009B000009007E0FFF778FD0099411A41F2883076
:1009C000814256D830688007F4D42FB1DBF800108C
:1009D00021F08051CBF80010A069D0B3DAF80020E4
:1009E0005146C2F38102022A4AD00228484607D063
:1009F000C8F8600000E03CE0FFF756FD04463BE02D
:100A00004746C8F86000FFF74FFD064605E000BF07
:100A1000FFF74AFD801B02282BD828688001F7D4F5
:100A2000D4E907010843A16A2B4A490802EB0141B6
:100A3000626A41EA8211084394F82C1040EA01618D
:100A40002048001F016001203866FFF72DFD044695
:100A500005E034E0FFF728FD001B022809D82868CC
:100A60008001F7D52BE000BFFFF71EFD001B022819
:100A700002D90320BDE8F88F28688001F4D41EE075
:100A80000128F7D00868E26900F48001914214D18E
:100A9000226A00F03F0191420FD147F6C071626AAD
:100AA0000140914209D1A26A00F44031914204D13F
:100AB000E16A00F07060884201D00120DAE700208E
:100AC000D8E70000083802400038024000004742E2
:100AD000800E4742007000400000FFFF10B5401E2E
:100AE000B0F1807F01D3012010BD4FF0E0246061A0
:100AF0000F21601700F04FFF0020A0610720206148
:100B0000002010BD7047704770B590F83C20012A56
:100B10002CD0012480F83C40022280F83D2003685C
:100B20005A689D6822F070060A6832435A60104B7A
:100B300002689A420ED0B2F1804F0BD00D4B9A4210
:100B400008D00D4B9A4205D00C4B9A4202D00C4B68
:100B50009A4204D1496825F080031943916080F8D6
:100B60003D40002180F83C10084670BD022070BD59
:100B7000000001400004004000080040000C00405C
:100B80000040014010B5040003D094F83D0010B1BE
:100B900007E0012010BD002084F83C00204600F052
:100BA0000DF8022084F83D00211D206800F002FDB0
:100BB000012084F83D00002010BD000008B5006849
:100BC0000B49884212D10B48016841F001010160D4
:100BD0000068002200F00100009011461920FFF784
:100BE000D3FCBDE808401920FFF7C0BC08BD0000D9
:100BF00000000140443802400168CA6842F0010226
:100C0000CA600068816801F00701062903D0016805
:100C100041F0010101600020704770B5044690F872
:100C20003C00012817D0012584F83C50022084F8AC
:100C30003D002068826822F0770222F47F428260C1
:100C40000868502830D00DDC20284DD005DC98B342
:100C500010283BD148E0022070BD302844D0402805
:100C600034D139E0602828D0702806D0B0F5805FF4
:100C70002CD0B0F5005F29D10AE0CB68D1E9012181
:100C8000206800F0F0FC2068816841F0770109E0FD
:100C9000CB68D1E90121206800F0E5FC206881687B
:100CA00041F48041816011E0CA684968206800F021
:100CB0008FFD5021206807E016E0CA684968206867
:100CC00000F097FD6021206800F0D7FC84F83D50CB
:100CD000002084F83C0070BDCA684968206800F0B4
:100CE00077FD40212068EFE7226801461046EBE7D8
:100CF0002DE9F0410D46040003D094F83D0018B1F1
:100D000008E00120BDE8F081002084F83C00204686
:100D100000F03AF8022084F83D002068816844F22F
:100D2000070291438160211D206800F043FC226886
:100D300090689169166A2B68AF69034340F20330EB
:100D4000814341EA0721A868EF6908434FF6FC4157
:100D50008843E96840EA0720014328692F6A0001B7
:100D600040EA0730084369686D6926F0AA0646EA3A
:100D70000515294393602268906120680162012073
:100D800084F83D000020BDE770B586B0044614210C
:100D90006846FFF753FA2A4923680024284A103985
:100DA00002252848B3F1804F1ED0274EB34219D1F7
:100DB000136843F008031360126802F008020592FA
:100DC0000A6842F001020A60096801F00101059118
:100DD00003210091CDE901546946CDE9034500BFE7
:100DE000FFF78EFA06B070BD136843F0010313607D
:100DF000126802F0010205920A6842F001020A60DC
:100E00000A6802F0010205920A6842F002020A60D2
:100E10000968012601F0020105914FF4004100919B
:100E2000CDE90154CDE903466946FFF769FA082088
:100E30000090CDE90154CDE9034669460348CFE768
:100E40004038024000000240000C00400004024014
:100E500010B50446006891B1042904D00122002194
:100E600000F0F4FB206801225FF0040100F0EEFBCB
:100E70002068016841F001010160002010BD0122DD
:100E80000021F3E7704770B50446006801694FF030
:100E90000005C943890715D4C168C943890711D41E
:100EA000E91E0161012020772068806980072046C3
:100EB00002D0FFF7E7FF04E000F0D8F8204600F08A
:100EC00079F9257720680169C943490717D4C168B2
:100ED000C943490713D46FF0040101610220207750
:100EE0002068806910F4407F204602D0FFF7CAFFD7
:100EF00004E000F0BBF8204600F05CF9257720689C
:100F00000169C943090716D4C168C943090712D446
:100F10006FF008010161042020772068C069800714
:100F2000204602D0FFF7AEFF04E000F09FF8204615
:100F300000F040F9257720680169C943C90617D434
:100F4000C168C943C90613D46FF0100101610820BC
:100F500020772068C06910F4407F204602D0FFF758
:100F600091FF04E000F082F8204600F023F9257795
:100F700020680169C943C90708D1C168C943C907C5
:100F800004D1891E0161204600F05CF920680169E6
:100F9000C943090609D4C168C943090605D46FF0DD
:100FA000800101612046FFF7ADFD20680169C9435A
:100FB000490609D4C168C943490605D46FF0400108
:100FC0000161204600F03FF920680169C9438906A4
:100FD0000BD4C168C943890607D46FF020010161B1
:100FE0002046BDE87040FFF78EBD70BD10B586B0DD
:100FF000044614216846FFF721F92368164C0021A6
:1010000016480222A34210D1036843F00103036093
:10101000006800F00100059080200090CDE90121DA
:10102000CDE9031269460E4812E00E4CA34211D1DD
:10103000036843F008030360006800F008000590AF
:1010400060140090CDE90121CDE9031269460648FC
:10105000FFF756F906B010BD0004004030380240DA
:101060000000024000080040000C0240704770B5CC
:10107000044690F83C000D4601280DD0012684F866
:101080003C60022084F83D0042B1042A18D0082AAE
:101090002AD00C2A4DD139E0022070BD206800F022
:1010A000F5FA2068816941F0080181612068816951
:1010B00021F004018161206881692A69114311E0EE
:1010C000206800F00BFB2068816941F400618161B8
:1010D0002068816921F480618161206881692A69C1
:1010E00041EA0221816124E0206800F023FB2068AE
:1010F000C16941F00801C1612068C16921F00401A2
:10110000C1612068C1692A69114311E0206800F0BB
:101110003DFB2068C16941F40061C1612068C1697B
:1011200021F48061C1612068C1692A6941EA022114
:10113000C16184F83D60002084F83C0070BD10B5AA
:10114000040003D094F83D0010B107E0012010BD69
:10115000002084F83C00204600F00CF8022084F8BF
:101160003D00211D206800F025FA012084F83D0093
:10117000002010BD08B50C4A01680C48914207D107
:10118000016841F002010160006800F0020009E01E
:10119000074A914207D1016841F0040101600068EB
:1011A00000F00400009008BD0004004040380240F8
:1011B000000800407047000010B504460068012296
:1011C00000F044FA09492068884203D1416C41F497
:1011D000004141642068816801F00701062903D0BD
:1011E000016841F001010160002010BD00000140D4
:1011F00010B504460068002200F028FA104B41F2B6
:10120000111120688A10984209D1036A0B4206D155
:10121000036A134203D1436C23F400434364206800
:10122000036A0B4206D1016A114203D1016821F021
:1012300001010160012084F83D00002010BD000084
:101240000000014070477047FEE70000F0B587B02E
:1012500014216846FEF7F2FF31480024016841F08E
:1012600080010160016801F080010591016841F091
:1012700001010160016801F001010591016841F07F
:1012800004010160016801F004010591016841F069
:1012900002010160016801F002010591016841F05D
:1012A00010010160016801F010010591016841F031
:1012B0000801016000681B4E00F008000590002244
:1012C00030213046FFF7EBF8174F00220321384654
:1012D000FFF7E5F8302000900125CDE9015469467B
:1012E00030460394FFF70CF803200090CDE9015439
:1012F000694638460394FFF703F80420CDE900045B
:10130000694638460294FEF7FBFF4FF4FC50CDE9E6
:101310000004694605480294FEF7F2FF07B0F0BDED
:101320003038024000080240000402400010024031
:1013300010B586B0002413480094019402940394DD
:1013400004940F49059401604FF47A51C0E90114E7
:101350004FF6FF71C0E9031444618461FFF712FC8A
:101360004FF48050009069460648FFF756FC202055
:10137000CDE9040404A90348FFF7C6FB06B010BD7D
:10138000000001402400002010B58CB024216846E4
:10139000FEF754FF0024114809944FF080410A944D
:1013A000C0E90014611EC0E90241046184610120AA
:1013B000CDE90004CDE902040494CDE90540079489
:1013C000694606480894FFF793FC099409A9034865
:1013D0000A94FFF799FB0CB010BD000064000020D8
:1013E00010B58AB0002407941C2168460894FEF7C3
:1013F00025FF1248104901601021C0E901144FF483
:101400007A71C0E903148461FFF799FE079407A974
:101410000A480894FFF778FB6020CDE900040294A5
:101420000422694605480494FFF721FE0348FFF7AC
:10143000DDFD0AB010BD000000040040A400002043
:1014400010B58AB0002407941C2168460894FEF762
:10145000F5FE1248104901601021C0E901144FF453
:101460007A71C0E903148461FFF769FE079407A944
:101470000A480894FFF748FB6020CDE90004029475
:101480000422694605480494FFF7F1FD0348FFF77D
:10149000ADFD0AB010BD000000080040E4000020CF
:1014A00010B58CB024216846FEF7C8FE0024114810
:1014B00009940F490A94C0E90014611EC0E9024171
:1014C000046184610120CDE90004CDE902040494A3
:1014D000CDE905400794694606480894FFF708FCE3
:1014E000099409A903480A94FFF70EFB0CB010BD3C
:1014F000000C004024010020FEE770477047704751
:10150000FEF7D8BF30B593B030216846FEF796FE9F
:1015100014210CA8FEF792FE1A480025016841F03C
:1015200080510160006800F08050119016480168F9
:1015300021F4404141F4004101600068022400F4BC
:101540004040119001200090000401908001CDE9FD
:101550000640042008904020CDE9090407200B90A4
:101560006846FFF70DF90CA90F2081E831004FF410
:10157000C0500F90109002210CA8FFF737F813B05D
:1015800030BD00004038024000700040054801684E
:1015900041F47001016003494FF000608039086038
:1015A0007047000088ED00E00148FFF76CBC0000C8
:1015B00024000020F0B502681D4B1E4C9F031E4DF9
:1015C0001E4E984207D0B84205D0A04203D0A84290
:1015D00001D0B04204D122F0700C4A6842EA0C02F9
:1015E000984210D0B8420ED0A0420CD0A8420AD0E7
:1015F000B04208D0124CA04205D0124CA04202D0FA
:10160000114CA04203D122F44074CA6822434C69B1
:1016100022F08002224302608A68C2620A68826203
:10162000984201D10969016301214161F0BD0000C7
:10163000000001400004004000080040000C004091
:1016400000400140004401400048014010B501F055
:101650001F030121046A99408C430462016A9A4085
:101660001143016210BD10B5846842EA032224F4DC
:101670007F440A432243826010BD826822F07002D8
:101680000A4342F0070181607047000030B5026AEA
:1016900022F001020262026A4368846924F0730541
:1016A0000C682C4322F002058A682A430A4DA8429E
:1016B0000BD122F00805CA6823F440732A434D6910
:1016C00022F004021D438B692B4343608461496807
:1016D0004163026230BD00000000014030B5026A83
:1016E00022F010020262026A436884690D6824F4E1
:1016F000E64444EA05248D6822F0200242EA0512FD
:101700000B4DA8420ED1CD6822F0800242EA0512AC
:101710004D6923F4406343EA85038D6922F040025A
:1017200043EA85034360846149688163026230BD96
:101730000000014030B5026A22F480720262036A3E
:101740004268C46923F4007324F073050C682C43C9
:101750008D6843EA05230C4DA8420ED1CD6823F4D1
:10176000006343EA05234D6922F4405242EA051220
:101770008D6923F4806342EA05124260C4614968BE
:10178000C163036230BD00000000014030B5026A51
:1017900022F480520262046A4268C3690D6823F42D
:1017A000E64343EA05238D6824F4005444EA0534F3
:1017B000064DA84204D14D6922F4804242EA8512C6
:1017C0004260C36149680164046230BD00000140A9
:1017D00010B5036A046A24F001040462846924F0E9
:1017E000F00444EA021423F00A020A43846102620C
:1017F00010BD10B5036A23F0100303628369046A05
:1018000023F4704343EA023224F0A00343EA0111B7
:101810008261016210BD10B50446002903DD08464F
:1018200000F01CF902E0484200F0F8F82046BDE85C
:10183000104000F073B900002DE9F04180464FF0F0
:10184000804000250E4645621F4C25604FF4967778
:1018500003E03946002000F03DF820689628F8D3D0
:1018600000F09CF9194CE07A217B08420BD02078DB
:1018700010B100F0F9F9FEE7012020701448406A29
:101880006082BDE8F08160792178084201D025713D
:101890006571002E03DD304600F0E0F802E0704292
:1018A00000F0BCF8404600F039F901E000F076F9AC
:1018B000A07A0028FAD0FA21484200F00BF8BDE8DF
:1018C000F0413220FEF70ABD240C00400000002049
:1018D0000000014010B50C46002802DD00F01EF9A2
:1018E00002E0404200F0FAF82046BDE8104000F067
:1018F000B5B800002DE9F0414FF08044002588463E
:1019000006466562204805604FF4967703E00021A3
:101910003846FFF780FF606A9628F8D300F03EF95A
:101920001A4CE07A217B08420BD0207810B100F0ED
:101930009BF9FEE7012020701548406A6082BDE8EF
:10194000F08160792178084201D025716571002EFF
:1019500003DD304600F0E2F802E0704200F0BEF82D
:10196000404600F07BF801E000F018F9A07A00286A
:10197000FAD06FF0F901FA20FFF74DFFBDE8F04112
:101980003220FEF7ABBC0000240C00400000002019
:1019900000000140FEE70907090E002804DB00F102
:1019A000E02080F80014704700F00F0000F1E02004
:1019B00080F8141D704702E008C8121F08C1002AF1
:1019C000FAD170477047002001E001C1121F002AC0
:1019D000FBD17047FEF776FDFFF794FDFFF736FC6D
:1019E000FFF7D2FCFFF7FCFCFFF75AFDFFF7A0FC66
:1019F000FFF726FD0748FFF7FFF806483C21403077
:101A0000FFF726FA3C210448FFF722FA00F034F9E8
:101A1000FCE70000240000202401002010B504464B
:101A2000002220210948FEF73AFD01220221084840
:101A3000FEF735FD04210748FFF7DAFB064804608E
:101A4000BDE8104004210348FFF7B6BB0008024080
:101A500000040240A40000203804004010B50446F1
:101A6000012220210948FEF71AFD00220221084820
:101A7000FEF715FD04210748FFF7BAFB064804608E
:101A8000BDE8104004210348FFF796BB0008024060
:101A900000040240A40000203804004010B50122D8
:101AA00020210A48FEF7FBFC012202210848FEF72C
:101AB000F6FC04210748FFF79BFB0749002008605C
:101AC000BDE8104004210348FFF776BB0008024040
:101AD00000040240A40000203804004010B5044671
:101AE000002210210948FEF7DAFC012211460848BD
:101AF000FEF7D5FC04210748FFF77AFB064804608F
:101B0000BDE8104004210348FFF756BB000802401F
:101B100000040240E40000203808004010B50446EC
:101B2000012210210948FEF7BAFC002201210848D1
:101B3000FEF7B5FC04210748FFF75AFB064804608E
:101B4000BDE8104004210348FFF736BB00080240FF
:101B500000040240E40000203808004010B50122D3
:101B600010210A48FEF79BFC012211460848FEF7A7
:101B700096FC04210748FFF73BFB0749002008605B
:101B8000BDE8104004210348FFF716BB00080240DF
:101B900000040240E40000203808004070B5042131
:101BA0002E48FEF777FC00B101202D4C2D4D8021F1
:101BB000A0712846FEF76EFC00B10120E0714FF4E1
:101BC00080712846FEF766FC00B1012020724FF4B8
:101BD00000712846FEF75EFC00B1012060724FF4F0
:101BE00080612846FEF756FC80B30020A0724FF4B7
:101BF00000612846FEF74EFC48B30020E0724FF427
:101C000080512846FEF746FC30B30020207321782F
:101C100000291AD1A17980F0010081F00101A171A0
:101C2000E17981F00101E171217A81F001012172F4
:101C3000617A81F001016172A17A81F00101A172E2
:101C4000E17A81F00101E172207370BD00E001E0F2
:101C50000120CBE70120D1E70120D7E700040240B3
:101C6000000000200010024010B5FFF777FFBDE82C
:101C70001040FFF713BF00002DE9F05FFFF78EFF64
:101C80005D4C4FF001074FF00006207BE17A834660
:101C900001420BD0207810B1FFF7E6FFFEE757486E
:101CA00026712770406A6082BDE8F09FA079E579CF
:101CB000237A40EA050E627A4EEA030C94F80A8011
:101CC0004CEA020AC14694F804C028EA0A0838EA35
:101CD0000C0801D0E770E7E76FF0F90C49B1E07844
:101CE00000B1E67066706146BDE8F05FFA20FFF76C
:101CF000A3BD5FEA0B010AD0E07808B1E670277156
:101D0000A6706046BDE8F05FFA21FFF7F3BD30EA48
:101D100002014FF4AF7605D03046BDE8F05F0021F8
:101D2000FFF779BD32EA000105D03146BDE8F05F2A
:101D30000020FFF7CFBDBAF1000F04D15FEA09011F
:101D400001D1E17809B385439D43954333D0002504
:101D50004FF4A576E0894119B14200DA6D1C2844A0
:101D6000218AFEF7B2FAFFF719FFE079A1798843DB
:101D7000217A8843617A8843ECD195E7FFF70EFF1B
:101D800028462946FEF796FA01E04FF49675E07A68
:101D9000A1790843E1790843217A0843617A08432D
:101DA00004D1207B10B9A07A0028E7D0BDE8F05F0D
:101DB000C820FEF793BA23EA0E03934316D00025FA
:101DC0004FF4B976208A4119B14200DA6D1C4119ED
:101DD000E089FEF77AFAFFF7E1FEA179E0790143A5
:101DE000207A8843617A8843ECD15DE7218AE089D3
:101DF000BDE8F05FFEF769BA000000200000014076
:101E000000000000000000000102030406070809AA
:101E1000301E00080000002024000000B619000851
:101E2000541E00082400002044050000C6190008C4
:101E3000000100000001000000000000000022017D
:101E40004A01000001000000100000000000000036
:041E50000024F40076
:040000050800019559
:00000001FF
